:020000040000FA
:06000000CEEF00F012003B
:020006000000F8
:08000800D9CFE6FFE1CFD9FFDB
:10001000020EE126DE6ADD6ADE6ADD6ADECF02F00C
:10002000DDCF03F0D890035004E6FF0E025C7F0E94
:10003000035805E2DF2A010E01E3DB2AEFD7020EA7
:10004000E15C02E2E16AE552E16EE552E7CFD9FFF9
:100050001200D9CFE6FFE1CFD9FF020EE126DE6A1A
:10006000DD6A9A68966A846A88AE2FD088B016D006
:10007000DE6ADD6ADECF02F0DDCF03F0033404E296
:1000800002500F08000E035408E3DF50846EBCDFFB
:10009000DF2A010E01E3DB2AEDD716D00F0EDE6E4C
:1000A000DD6ADECF02F0DDCF03F0033404E302505B
:1000B000FF08FF0E035408E2DF50846EA5DFDF0661
:1000C000010E01E2DB06EDD7CFD7020EE15C02E2C2
:0E00D000E16AE552E16EE552E7CFD9FF12007A
:0200DE00060E0C
:1000E000F66E000EF76E000EF86E00010900F55076
:1000F000656F0900F550666F03E1656701D03DD07B
:100100000900F550606F0900F550616F0900F55066
:10011000626F09000900F550E96E0900F550EA6EBA
:10012000090009000900F550636F0900F550646F7C
:1001300009000900F6CF67F0F7CF68F0F8CF69F053
:1001400060C0F6FF61C0F7FF62C0F8FF00016353B3
:1001500002E1645307E00900F550EE6E6307F8E230
:100160006407F9D767C0F6FF68C0F7FF69C0F8FFFA
:0C01700000016507000E665BBFD712009F
:04017C00000EF36E10
:1001800000EE00F0080E01D81200EA6002D0EE6A1C
:0C019000FCD7F350E9601200EE6AFCD7C7
:04019C0017EE00F06A
:1001A00027EE00F0F86A019C6FEC00F0DCEC00F048
:0801B00029EC00F0FBD712005E
:0201B800120033
:020000040030CA
:010000001DE2
:00000001FF
